:0200000407FCF7
:10000000A852FC07C101FC07C901FC07E101FC077C
:1000100000000000000000000000000000000000E0
:10002000000000000000000000000000F901FC07D3
:100030000000000000000000FB01FC07FD01FC07C0
:10004000151DFC074F1DFC07A526F007E11AFC074C
:10005000D118FC07FF01FC07B517FC07FF01FC07DF
:10006000FF01FC07FF01FC070B14FC070F14FC0742
:100070001314FC071714FC071B14FC07FF01FC07F3
:100080005514FC07FF01FC07FF01FC07FF01FC07FB
:10009000FF01FC07FF01FC07FF01FC07FF01FC0754
:0800A000000000008E070E00B5
:0200000407FCF7
:100110000448854603F030FE004800476903FC07A9
:10012000C046C046A852FC0710B520480189C9083E
:10013000C9000181008A1E4CC00715D0608A800763
:10014000800F012810D91B481949428820310A81A3
:1001500082888A80C2880A80618AFF228132008870
:100160009143C001014361821349062008800F209A
:1001700000F00EF8012000F00BF8002000F008F865
:1001800060890421884360810020208062B610BD10
:10019000002809DBC106C90E012088400749086014
:1001A000BFF34F8FBFF36F8F704700000003005005
:1001B00000000050A000FC070034005080E100E087
:1001C0000F4880470F48004704207146084203D07B
:1001D000EFF309800C490847EFF308800A49084704
:1001E00004207146084203D0EFF30980074908470D
:1001F000EFF3088005490847FEE7FEE7FEE7FEE764
:100200002901FC071101FC07A902FC071102FC07E8
:1002100010B5044620484089C00508D51B2000F0D1
:10022000B5FF1D486030018801221143018005227D
:1002300012071088518A0007800FFF2381339943EA
:10024000C001014351821549206808606068486018
:10025000A0688860E068C8602069086160694861DA
:10026000A0698861E069C8610C620D48836A4B62CD
:10027000C36A8B62036BCB62C36B0B63436B4B63D1
:10028000806B8863074908200880908AC00601D5E2
:1002900000BE10BDFEE70000200000500090FC07EB
:1002A00000ED00E00033005070B5052504462D0731
:1002B000288A04210843288228894021084328816C
:1002C00024480126066024490820088023484089E4
:1002D000C00507D51B2000F059FF20486030018879
:1002E000314301802888698A0007800FFF2281320C
:1002F0009143C0010143698219492068086160681F
:100300004861A0688861E068C86120690862606926
:100310004862A0698862E069C8620C631148826A19
:100320004A63C26A8A63026BCA63C26B0C4940317A
:100330000A60426B4A60806B8860A88AC00608D554
:1003400000BE688A012180088000C90308436882D2
:1003500070BDFEE780E200E0003300502000005056
:100360004090FC0700ED00E008B500F0C4F800F094
:1003700041FB052424070825C826A74F0DE00120CE
:1003800000F0FAF900200090042168464DF7D6FBF2
:10039000002817D000F0B3FA14E02089000611D528
:1003A00001208007006B00040CD49C480078C00733
:1003B00008D15DF722F8002000F0DEF998480078B7
:1003C0000428DCD072B601F055FD042806D00228BE
:1003D0000BD0032809D0012817D017E091480078E6
:1003E000012801D0032000E0022000F04EF8A08A8E
:1003F000C00601D58C48058030BFA08AC00601D553
:100400008948458000F005F800E030BF62B63E80C4
:10041000C3E710B500F080F9844902280CD105200B
:100420000007408AC005820F814802800A89428005
:100430008A8882800A88C28048896021C005002895
:100440000ADB7A4860300088C00705D0774A20323E
:10045000508A884320305082764882888A432032EE
:1004600082807548C078002807D0744800680189E8
:100470008AB2416803205CF721F902F0B6FF7048A8
:10048000016904229143016110BD38B56946052414
:1004900008702407218A054604221143218200F0B6
:1004A00063F8624841896022C905002905DB5F4B7A
:1004B0002033598A9143403159825E498B88934356
:1004C00040338B80022D01D0032D13D18188490840
:1004D00049008180002000900099491C0091142956
:1004E000FADB618989088900491C618161894906B3
:1004F000FCD5608038BDF0B552485349052301272B
:10050000524A884201D31C4604E0904201D33C4643
:1005100000E000244E4D4F4E4748AD194E4E8470BA
:10052000AD190126B6034560B54201D8142500E097
:1005300000252540494C45708C4213D2484B254636
:10054000EB18944205D38B4201D211230AE03B46BB
:1005500008E0934201D2142304E08B4201D210231D
:1005600000E000230370F0BDF8B5022801D0032895
:1005700048D1334A136904210B4313612D4A203AB1
:1005800093895B085B009381052410222A4E24077F
:1005900002287578608A36D010436082608A0843EA
:1005A00060827068C01C870801F000FA608A102120
:1005B000084360822B487F1E0762EFF31080012101
:1005C00081F310882188802291432180002800D067
:1005D000012080F3108815484089C0050AD501F034
:1005E000D3F90B2000F0D2FD1048603001880122C1
:1005F0001143018003205CF787F8002806D0012012
:10060000F0702583F8BD90436082F3E70020F0701E
:1006100030780540F5E700000031005054BAFC077F
:10062000008DFC07B4BAFC070033005020000050D6
:10063000A000FC0720030050C08BFC0758B9FC0742
:1006400000ED00E0C08BFC070070FC070040FC07D9
:100650001001FC07084B0000000004F8A852FC073A
:100660000C0400000000F407704770B50D4600242C
:1006700042F745F92855641CE4B2202CF8D3002039
:1006800070BD10B55EF726FD10BD10B55EF72BFDF1
:1006900010BD7047704770470649884200D000BEC1
:1006A00005210907488A012280088000D2031043EF
:1006B00048827047111111112B480178002902D08E
:1006C0008021417070472949002008702849C8706E
:1006D000704725490A78002A03D000280CD0022050
:1006E0000BE0002801D0022000E001201F49087023
:1006F0001F490120C8707047012080304870704742
:10070000002805D0012804D0022804D10120E0E708
:10071000D2E70020FBE77047144900200978002940
:1007200004D0012903D0022900D102207047012002
:1007300070470D48C07870470020EFF31081012208
:1007400082F31088052212071289120605D409487F
:10075000028901231A4302811846002900D0012191
:1007600081F3108870470000C88BFC07B4BAFC07FF
:1007700054BAFC070033005010B5FE4CA178002994
:1007800021D0FD49002803D008884007FCD402E0AE
:100790000888400717D4CA88888811040A180020DE
:1007A000A070F64800235043800B401C4008E061D5
:1007B0001F204006492162F753FEE162A0626421D6
:1007C0004843000CA06110BDEB4948800888032213
:1007D000104308800888042210430880E54901205E
:1007E0008870704770B50520000701893022914359
:1007F000018101898022114301810189082211436D
:100800000181DF490A88520852000A804389182270
:1008100093434381048940231C430481048A0425B3
:10082000AC430482848AA407FCD5D24DAA246C610F
:10083000CD8801240F263602B5430B263602AD19AA
:10084000CD80CD882543CD804489944308344481AC
:100850004A88520852004A80018999430181012047
:1008600080070168821591430160C64801683F22F4
:100870005202914342148918016001680203114336
:10088000016070BD10B5BB490122D203C969904215
:1008900005D303F097FA8905800A084310BD484341
:1008A000800A10BDEEE710B5B24989694843B649E0
:1008B000401849005EF7A6FB10BDF4E770B500F0E4
:1008C000EEFB0446FFF7F9FFAA4D288120463C3095
:1008D000FFF7F3FFAD49001D88602A891018C01D7D
:1008E000AB4A48601278022A01D111304860FFF704
:1008F000D9FFA849401880B25CF710FE70BDF0B572
:10090000A54985B00120C863C86B0028FCD101202F
:100910008007C069974C2169884201D2002121617A
:100920001922411AD20191422AD320619B480188A1
:100930000391418802918788C688994903C900902C
:100940000191684600F079FE00F04FFF0546012056
:1009500020567F280CD0281A40B2002801DA4042E5
:1009600040B2082805DBE068401CE06001F03FFC75
:1009700065708A48029941808780C680039901800A
:1009800005B0F0BD0020704710B586490020086012
:10099000FFF794FF01208007016B490049080163BC
:1009A00010BD08B57349888075498A88520852007D
:1009B0008A80002200920099491C00911429FADBD8
:1009C000052109074B899B089B005B1C4B814B89C8
:1009D0005B06FCD54880E120C0000092521C0092CA
:1009E0008242FBDB488980088000488148890006F4
:1009F000FCD508BDF8B56C48C821018000214180B4
:100A00006A480824448000F007FC694DA9886846BC
:100A100001800088C046C046684600880423984389
:100A20003ED00020A8806248203001880F22920228
:100A300011430180524E2036718A21437182504900
:100A400060310A880625AA430A800588CA01154331
:100A50000580758A95437582B28A0E25AA43921D38
:100A6000B282474A5589534FED050D881DD5BD43C8
:100A70005701ED190D800D880F022D052D0DED1973
:100A80000D8005882543058005889D4305800D88D8
:100A90006D086D000D8001884025A943018020E08C
:100AA000288A400840002882BDE7BD4303277F0213
:100AB000ED190D800D880F273F033D430D800588FC
:100AC000A543058005889D430580B58A03277F02DD
:100AD000BD43B5820D8801273D430D8051894907EB
:100AE000FCD50188032529430180718A6025A9432B
:100AF000203171828188A9432031818001201D4EDF
:100B0000052530702D07E88AC02188438030E882AF
:100B1000108A000A00021082108B1C2188430830C2
:100B2000108325480380A8880121C9028843A88032
:100B300048012249086000F039FF022000F0FBFE66
:100B40001F4F3869C0B2AA2873D0012029880C220F
:100B500091438000014329800648203000F0C8FA04
:100B600000F02AF900F098FA002864D000F094FA16
:100B700028E00000D08BFC07001600501111010086
:100B8000200000500002004020A10700184CFC0784
:100B9000B4BAFC07E2040000C00000400015005099
:100BA0007043FC07A8B9FC07003100500033005027
:100BB00000030050000F00000002005080E200E03F
:100BC000C07FF807FFF7EDFE7F207070B86A1E49FE
:100BD000086000F01BFF00F041F802F006FC012065
:100BE00041F793FEFFF7FEFD1848006841F732FB1E
:100BF00017490020C870087101208007016882151C
:100C00001143016000F0F8FF1E20FFF7DDFD012019
:100C1000FFF7B2FDFFF750FD02F067F802F063FD49
:100C2000FFF7B2FE0B49C82008800B484480F8BD8E
:100C3000FFE703208AE73869C0B2AA2801D06E20F6
:100C400096E7802094E70000184CFC074CB9FC079D
:100C500054BAFC07003100500033005070B53548DD
:100C6000334D006834492C6892B0884205D0052283
:100C70005202324932485EF73FFA324E324930462C
:100C80005EF753FA0721314809025EF74EFA2C60ED
:100C900003F04AF82F492E4808602F4800240480AA
:100CA00030222E492E485EF727FA29490822886803
:100CB000C9681191109010A92A485EF71DFA2449BD
:100CC0004022103168465EF717FA402269462648EE
:100CD0005EF712FA2548274904702548086027491D
:100CE0002548086027492648086027490A200870D7
:100CF00026482749047032200870264905200860DC
:100D0000254A01211160254908602549062008600F
:100D1000244907200860244908200860FF2023494F
:100D200007300860224908602248066012B070BD92
:100D30005CBAFC079CB8FC076587341200B0FC075E
:100D40004C8EFC0700A0FC07AC14000000B9FC07A7
:100D50007843FC0760BAFC07008CFC077CFCF107B9
:100D600000BAFC07DAB9FC07B0BCFC07FDB9FC0708
:100D7000603FF20750B9FC070841FC0754B9FC0773
:100D80008442FC0758B9FC07B0B9FC07B1B9FC07AD
:100D9000D9B9FC075CB9FC0760B9FC0764B9FC076A
:100DA00068B9FC076CB9FC0770B9FC0748B9FC07C7
:100DB00044B9FC074CB9FC07F0B5C14C89B0002020
:100DC000207660760390BF480169BF48814202D017
:100DD000C01709B0F0BDBB4F0425403FE819016DB5
:100DE0000191090F092910D0012201989207904220
:100DF0007AD3B64A904277D8B5490835884274D13B
:100E0000E819C16CB3484180A6E0019A0199120427
:100E1000C9B2160E112935D007DC0B005EF7C0F9F8
:100E2000087474747474740D1F7412390B005EF7B7
:100E3000B7F9063A4B5D6B60656B207EB200C1006E
:100E40009F48403808189F49143169185EF754F9D3
:100E5000207E8019C0B22076042854D854E0607EE9
:100E6000B200C10096484038081896491030143135
:100E700069185EF741F9607E8019C0B260760C286F
:100E800041D841E0416D89B20291406D000C0146AC
:100E90000490029800F006F9A0800499029800F0EE
:100EA00009F9E08030E0416D89B20491406D000C99
:100EB00001460290049800F0F5F820810299049808
:100EC00000F0F8F860811FE0039805A98000401841
:100ED0007C49B200143169185EF70EF90398801945
:100EE000039002280FD80FE02BE010E0406D6082E5
:100EF0000AE0416D72484038016405E0406D00042D
:100F0000000CA08200D100BEB00045194AE0704933
:100F10002639884203D1E819C06CE0821CE06C4994
:100F2000091F884204D1E819C06C6A49888013E01F
:100F30006749083988420FD1E819C06C6549C880F3
:100F40000AE007292ED008292CD00A292AD0062900
:100F500028D0401C07D000BE5A48103029185E48DF
:100F6000814200D23AE70598A0810698050C86B226
:100F70002946304600F096F8E0812946304600F0D8
:100F800099F82082207EC10700D000BE400820765C
:100F9000607EC10700D000BE40086076A18A0029AB
:100FA00002D004E02D1DD7E77D21C900A1820428CD
:100FB00000D000BE00200CE7F8B5414C0025403CB5
:100FC0003F4F24E0EE00A059444988421AD130191D
:100FD00000904068800A400414D001F0EDFB09281D
:100FE00010D90098032240681202014609041040FB
:100FF000890E0843A1590860009839494068C0012A
:10100000C00D02E030194068A15908606D1C387E9F
:10101000A842D7DCF8BDF8B5294C0025403C27464E
:10102000403717E0E80006192E48316981420DD19A
:1010300001F0C2FB092809D92B49706908402849E9
:101040000988490408433169086002E03069716920
:1010500001606D1C787EA842E4DCF8BD18490420CC
:10106000085E704716490620085E7047144908203C
:10107000085E704712490A20085E70471048808950
:1010800070470F490E20085E70470D491020085E1A
:1010900070470B48408A70470948C08A7047084823
:1010A000808A7047081A0104890C40180F494018BB
:1010B00000B27047C2008018401A0004C014704784
:1010C000448CFC07C07EF807A5A5A5A54C4200509E
:1010D00028000050A000FC07C07FF8074C1000401B
:1010E000244CFC0738300040FFFF01FC0100FFFFEB
:1010F00010B5062201495DF7FFFF10BDD47FF80748
:101100000520000701883022114301800188032255
:101110001143018070470520000701883022914368
:1011200001800188890889000180704736490A8B4F
:1011300003231B029A43000202430A837047334988
:101140008A8A03235B029A43C3085B021A438A829A
:101150008A8A0723DB0240079A43800C02438A8273
:101160002A48403001880122114301802748203855
:1011700041894907FCD570472448818A808A4905FE
:10118000890F8004400FC900081870471F498A8AD8
:1011900003235B029A43C3085B021A438A828A8A4A
:1011A0000723DB0240079A43800C02438A82704780
:1011B00010B50446154820384089C00502D40120E6
:1011C000C04310BD00F0DDFB002806D0FFF7D4FFC0
:1011D000A04202D90020C04310BD0C48408AC00480
:1011E00008D40B480088000704D4082C02D204203D
:1011F000C04310BD07480121047041702046FFF72D
:101200009EFF002010BD0000203000504000005024
:1012100020030050284CFC07F0B585B00026884C10
:1012200002960298302148430096001900998900DF
:1012300046500099491C00910C29F7DB0298401C8C
:1012400002900128EDDB02F07DF87D4D0021083D84
:101250002960696001270296002000900299794870
:101260004900465A00993846884080B206421DD04F
:101270000298302148430099001989004058411CC8
:101280001BD000280DD0C117009A5DF779FF029A94
:1012900012015DF775FF2A686B68104319432860D7
:1012A00069600098401C00900C28DBDB0298401C11
:1012B00002900128D0DB05B0F0BD00BEE3E7F8B531
:1012C000164605460C460A461F46012000215DF7DA
:1012D00057FF2A015DF754FF594B083B1A685B68BA
:1012E00010401940084300D100BE6801564940181B
:1012F000610008183E43C680F8BD70B505460C462F
:101300000A46012000215DF73BFF2A015DF738FF07
:101310004B4A083A1368526818401140084300D1FC
:1013200000BE6801484940180121A140818070BD7C
:1013300070B505460C460A46012000215DF720FFE6
:101340002A015DF71DFF3E4A083A136852681840AB
:101350001140084300D100BE68013B4940180121FB
:10136000A140418070BDFFB581B00C4605460A46DC
:101370001F46012000210A9E5DF702FF2A015DF74A
:10138000FFFE2F4B083B1A685B681040194008436A
:1013900000D100BE002E2146284602D0FFF7C8FF2C
:1013A00001E0FFF7AAFF3B4621462846039AFFF7D4
:1013B00086FF80E770B5012421460A3881400D463A
:1013C00088B200F02CF884402048C189A9430C431E
:1013D000C48170BD10B504460A3804280BD82046D5
:1013E000FFF7E8FF1649A000303140188038806DC3
:1013F000002801D0804710BD002CFCDBE106C90E9F
:10140000012088401249086010BD0A20E2E70B2045
:10141000E0E70C20DEE70D20DCE70E20DAE700280D
:101420000BD0411E4840C003010C002002E04908D7
:10143000401C80B20029FAD170471020704700008C
:10144000688CFC07C843FC070030005000140050B3
:1014500080E200E010B5FFF75EFE052212079088DB
:101460002049000504D5204B1C880520A04311D03D
:101470009088C3061D481FD58388DB071CD00388CE
:101480001B0619D501228280028880239A4302809C
:10149000486822E018880422104318801888400801
:1014A000400018800C68002C05D00220185E995E60
:1014B0000A229A5EA04710BD9288D206FBD5828888
:1014C0009207F8D50288D205F5D5022282800288DB
:1014D000FF2301339A43028088680028EBD08047BD
:1014E00010BD0000AC8CFC07000200500001005051
:1014F000EF48018801221203914301807047EC48B4
:1015000001880122120311430180642000BF401EA4
:10151000FCD17047E649CA88D208D2000243CA808B
:101520007047E349CA8870239A4300010243CA8086
:101530007047F8B5050049D0DD4C29782088402255
:1015400090438901084320806878FFF7EAFF2878F4
:10155000002803D168780009FFF7DCFFE87804264B
:101560000128208833D0B04320802879A188000248
:10157000C9B20143A180E08801274006400F7F02E5
:10158000042826D0FFF7B4FFA8780F2800D900BEA2
:1015900061880F22520291434002014361806879C1
:1015A00061888908890001436180A8790128208821
:1015B0003BD0B8432080E879072800D900BE618875
:1015C000FF22C1329143800101436180F8BD304365
:1015D000CAE7FFF75EFDB7490028088001D1B64889
:1015E0000880FFF78CFF2088384320802188402026
:1015F0008143014321806088304360806088C0045B
:10160000C00C608060880F214902884308436080D5
:101610006088FF21C1318843FF2181310843608008
:101620006088800880006080F8BD3843C2E7A04829
:101630000188012211430180704770B505469C4C1A
:10164000002020802120000160804020A080FFF742
:1016500015FDA081A189702081434031A181062020
:1016600000F0E3F82846FFF764FFFFF7E0FF70BDE6
:101670008F48018849084900018070478C480188DB
:10168000022211430180704700B5FFF7F7FF884839
:1016900001888907C90FFBD10121C181008A00BDE2
:1016A000F8B5834C05466088000700D500BE208849
:1016B000009067880020FFF7C0FF6088042108437E
:1016C000608060880F214902012388435B02184330
:1016D00060802088984320806188FF20C13081434A
:1016E00001436180208840218843A901084320806C
:1016F0002089800A8002184320816089800A800244
:101700001843608120888021084320802188581058
:1017100081432180FFF7B8FF8009FF38FF38023886
:1017200086B22088FF21013108432080FFF7ACFFFB
:101730008009FF38FF38023880B2012D23D0991B71
:10174000012589B2AD02A94200D300BE2289920AC6
:1017500092020A432281181A80B2A84200D300BE26
:101760006189890A8902014361812188FF20013052
:1017700081432180FFF788FF8009984212D9FF3802
:10178000FF3802380FE07100591A012589B2AD0205
:10179000A94200D300BE2289920A92020A43228102
:1017A0004000D8E7181A082800D300BE009820800F
:1017B0006780F8BD3E490120C88140480068002884
:1017C00000D00047704710B500F03CF838494A880F
:1017D000D205520F062A01D9062102E04988C9051F
:1017E000490F0622511AC84010BD10B5FFF746FF39
:1017F0002F4801888907C90FFBD10121C181008AC7
:101800002C4A2F491288801A7D22D200504300288A
:1018100001DD4A1002E0002801DA2A4A80185DF74B
:1018200007FC8011193040B210BD002809DBC10649
:10183000C90E0120884024490860BFF34F8FBFF3D1
:101840006F8F7047F8B5054619484188090705D5D7
:10185000FFF717FC0646FFF718FC0FE00088800929
:10186000C007C00F05D0FFF7F9FB0646FFF7FAFBEC
:1018700004E0FFF7FBFB0646FFF7FCFB04462804E9
:10188000401B124D71190E465DF7BCFB0746200444
:10189000001B31465DF7CCFB391A6800814201D943
:1018A0000020F8BD28468142FBD888B2F8BD000070
:1018B000001500502A4CFC0740760000B88CFC074D
:1018C000AA0500002BFDFFFF80E100E0FFFF000004
:1018D00010B50A4880890A49C96A002901D0884799
:1018E00010BD042000F001F810BD002805DBC10682
:1018F000C90E01208840034908607047201300503A
:101900002C4CFC0780E200E010B50446FFF734FCE5
:10191000A04202D22046FFF739FC58480188C90787
:1019200008D101880122114301805448603841895F
:101930004907FCD510BD38B5514C05462068410714
:10194000490F684601700078854219D04B486038CD
:101950004089C0050CD5A81E03005DF721FC0504D5
:101960000604040409000B2000E01320FFF7CCFF5D
:101970002068C008C0002843206060684007FCD58C
:1019800038BD4048007870473E49002008707047D5
:10199000052109070988090600D400BE80003A49DC
:1019A00009583748016139494161704710B5EFF373
:1019B0001084012080F31088304860384089C005C9
:1019C0000BD5304901200870FFF7D6FB304908706D
:1019D0002A480088C007C00F48700520000701880A
:1019E00080221143018026480168C908C9000160AE
:1019F00041684907FCD50320FFF7CAFF002C03D03C
:101A0000012080F3108810BD0020FAE770B5EFF3D5
:101A10001084012080F3108805210907088880229E
:101A20001043088016480368DB08DB000360436846
:101A30005B07FCD5174B0361144B43610888904347
:101A400008800E4860384089C0050ED50D49002039
:101A50000F4D08702878FFF799FB6878002804D1AB
:101A600006480188490849000180002C03D0012064
:101A700080F3108870BD0020FAE70000800000505D
:101A80000000F407BC8CFC07CC43FC07090404A449
:101A9000284CFC070F009909544930B4884201D002
:101AA000012100E00021524A4901891808E0838A97
:101AB000DB07DB0F12D00388541C8D68CC81AB543C
:101AC000CA898B899A42F2D3828852085200828056
:101AD0008A69002A02D0C88930BC104730BC7047E0
:101AE00010B5444800F001F810BDF8B53F4D404E28
:101AF000044620890007000F062826D009DC0128AB
:101B000040D002281DD00428F3D12046FFF7C4FF9F
:101B1000EFE7072828D00C28EBD1AC4201D00120F8
:101B200000E00020400187192046FFF7B5FFA1889B
:101B300049084900A180B9690029DAD0F8898847A5
:101B4000D7E7204600F01FF8D3E72046AC4201D08B
:101B5000012100E00021490189190A69002AC8D041
:101B6000818A9E2319400BE02046AC4201D001211E
:101B700000E00021490189190A69002AB9D0012130
:101B80009047B6E7F8BD194930B4884201D0012129
:101B900000E00021164A490189180EE003891B065E
:101BA0009B0F032B1BD0838A9B06DB0F002B95D04A
:101BB000531C0C68CB80A25C0280CA888B889A4236
:101BC000ECD3828802239A438280828880239A43BE
:101BD00082804A69002A81D0888830BC10477C23E3
:101BE0001B5A9B07DB0FE1E778E70000001000506D
:101BF000C08CFC0700110050F8B51D481B4D006853
:101C0000A84231D0FF26C136012130465AF7E4FD03
:101C100004461848016818480A0A017042700A0C04
:101C20008270090EC1700022A35CFF21C0319F07A2
:101C3000891ABF0F615CC75D79405940A154521C9D
:101C4000B242F1D30C481C222146001D5FF7E8F98F
:101C5000002800D000BE20465AF739FE06484068EA
:101C600040F753FE02480560F8BD00006587341256
:101C70009CB8FC07184CFC075C4CFC07F8B5012528
:101C8000AD07AC6B2046FEF70DFE6849684F4A6809
:101C9000861800204860394630465DF7B3F965493B
:101CA00048603A465043301A00D0381A80B2086073
:101CB000286B08218843084328635F4804605F4815
:101CC0000068002802D0A04200D200BEF8BD10B5C6
:101CD000FFF721FA052000074189890703D04189D0
:101CE0008908890041810189802211430181018A8B
:101CF000042291430182818A8907FCD500F0B2F861
:101D0000012080070169490700D500BE0169490724
:101D1000FCD510BD10B5FFF7F3F949480189490713
:101D2000FCD4FFF7F8F947480521008809074880E7
:101D30004548464C0088801E608007202080FFF7C1
:101D4000DFF920884007FCD4FFF7C1FF10BDF8B5CC
:101D50003F480168C90703D00168022211430160AE
:101D60000168490204D5016801229205114301600E
:101D700001272E4EBD072C69002C55D0200606D514
:101D80008020A8614BF783FD1E20FEF71DFDA007F4
:101D900003D50220A86147F778FC200708D5082062
:101DA000A861002047F72AFC0420307000F0FBFCFB
:101DB000E00505D5FF200130A861012047F71EFC92
:101DC000A00504D501204002A8614BF7C9FD6006BB
:101DD00003D54020A86147F70CFCE00603D510208E
:101DE000A86145F7C9FF60070FD50420A861144812
:101DF00001894908490001815BF766FB40F720FC37
:101E00001E20FEF7E1FC00203070E00706D0012024
:101E1000A8615BF775FB4BF73AFD3770A006AAD5B2
:101E20002020A86100BEA6E7F8BD0000008DFC07D9
:101E30007102000040000040108DFC07088DFC0777
:101E400000330050D48BFC07D88BFC0700160050E1
:101E50000002004010B540F738FA674880686749CB
:101E6000486010BD10B540F75CFA644862494068AC
:101E7000886010BDF8B5002500F0B9F80027009083
:101E8000FEF757FC01465E4E0020002902D1317951
:101E9000022900D100905B490989C9070DD15AF781
:101EA00078FB002809D0F0780125002805D005200E
:101EB0000007808AC00701D0042596E030880028FA
:101EC0007DD1FEF736FC002806D14F48806A0028F5
:101ED00002D000F08CF80090FEF7F0FCB178684674
:101EE0005BF74FF900286AD00124A4072069400657
:101EF0007BD44348817868464BF720FE002874D095
:101F00000120FFF713F90099002906D0206AFF3855
:101F10003938DA2801D8491E00913C4802883C48EB
:101F2000016850183B4A1060E26B920A92020A4321
:101F3000E263E16B384A1140384A1668B202114335
:101F4000E163E16BC902C90A40050143E163344A18
:101F5000009804250021904200D300BE314B0CCBE9
:101F60005DF77AF80903000D0843244A401E711CEE
:101F70001060884200D1166021480079002801D005
:101F8000012100E00021106847F7EEFC2648C06AF6
:101F90008047FEF7F7FC002802D0FFF7B1F80127D1
:101FA000154E206B0004C00FFBD03068C005FCD577
:101FB00030688024A0433060002F03D000E014E09C
:101FC000FFF7A9F80F494889462804D24622174B43
:101FD000101A18604A81FFF73DFF30680006FCD5F3
:101FE000052000070189A14301812846F8BD10485A
:101FF0000068806A7047000000020040088DFC07FE
:1020000054BAFC070033005074BEFC07D88BFC07A1
:10201000204CFC07704CFC07FF03E0FF1C4CFC0746
:1020200040420F00F88BFC0758BFFC07048DFC07EB
:1020300058B9FC07002070477047704710B5282832
:1020400001D2282002E0E62800D9E620FF21F33162
:1020500048437D21C9005CF7D5FF8130C0B210BD77
:102060007047704710B5022902D0012900D000BE88
:10207000002802D0FF2802D000BE022902D000F0C2
:102080009BFB10BD0C2010BD01218907086B0722A6
:10209000104308638C480168021391430160704744
:1020A00010B50220FFF742F8874801680203914308
:1020B0000160864800214163416B1F221204914355
:1020C00042138918416301060868F0229043E0300A
:1020D000086010BD10B58AB07D4941627D498162BA
:1020E0007D494161002430210C547C49C1627C4906
:1020F00001607C4901627C4941607C49C16100F01A
:102100003EFB7248416B1F2212049143421389180F
:1021100041636D480168C2129143016068460455ED
:10212000641CE4B2282CFAD30146714828220068C6
:1021300040305CF7E1FF092000F03BFB00F03FFB83
:10214000002802D0012000F034FB00F019FBFEF75C
:1021500033FFFEF760FF00F0D5F800F058F8FFF706
:102160009FFF00F00BFB00F083F800F01CFB0AB0AF
:1021700010BD10B55548416B1F2212049143421304
:102180008918416300060168C908C900016005207B
:102190000007018908221143018100F010FB00288B
:1021A00002D0012000F005FB00F0EAFAFEF704FF80
:1021B000FEF731FF00F0A6F800F029F8FFF770FFF6
:1021C00000F035F800F0EFFA10BD10B504467022AB
:1021D000484949485CF790FF47484830011B46484A
:1021E0001038018344495C31091B418310BD10B58F
:1021F00000F0C6FAFEF70FFF00F084F800F007F8D1
:1022000000F0BCFA00F023F800F0CDFA10BD2F4B1F
:1022100010B540331868394C0102090EC2B20A31B8
:1022200009040A32204011430143196010BD344AA9
:10223000118B3148103083691B0C1B040B438361E5
:10224000518BC269120C12040A43C26170472C4AB6
:10225000203A118B28481030C3681B0C1B040B4319
:10226000C360518B0269120C12040A430261704769
:1022700010B5FFF7ECFFFFF7DAFF21482038018A9D
:102280001D4810308268120C12040A4382601C4AF6
:1022900040329188036A1B0C1B040B430362D188F4
:1022A000426A120C12040A43426215494A88836A40
:1022B0001B0C1B04134383628988C26A120C12042C
:1022C0000A43C26210BD000000020040400000400E
:1022D0003520FC073920FC076520FC078920FC0716
:1022E0003B20FC076120FC076320FC073D20FC0726
:1022F0004CB9FC07E843FC0770A0FC0700FF00FF97
:1023000020300040F0B5FE48406B7F210902884331
:102310000B2109024018FA494863086AF94980B25A
:102320004018F7490862886BF749012208405203B8
:10233000F34980188863F2484030016903231B0287
:1023400019430161818B102421438183EC482030A3
:102350008188012421438180ED49EC480860ED4CDF
:1023600020883F21090188432F210901401820803E
:10237000E84820388169E84D490D490549198161CE
:10238000C169E64D294009256D024919C1614168BD
:10239000E34D2940E34D491941608168E24D2940F0
:1023A000E24D49198160C168E14D2940E14D49196B
:1023B000C1600169E04D2940E04D49190161E049E2
:1023C000C514097809064919C1256D012943DD4D58
:1023D00029600525DC49AD020D816D1D8D81DA492D
:1023E00020310D892D0A2D0255350D818D25AD0029
:1023F0000D82D64D8D82D64D0D83D44D0E3D8D83ED
:10240000D349D14DC91D40352980D249A181C16B25
:10241000D14C2140D14C0919C163FF20D04C6C3004
:102420002080CF482030068B1F2149010B258E4389
:10243000AD0176190683CA484030868809278E4345
:10244000BF01F6198680068915278E437F01F6198C
:10245000068186898E4371198181FF208D30A0808D
:10246000BF4880300189E024A14319430181818B59
:102470004909490119318183B2482030818B5B01C0
:10248000994389188183AF4880300168C908C90021
:10249000C91C0160AB49B34840314862F0BDA9494D
:1024A00008B500208031C8620090401C0090FF28D1
:1024B000FBDDAD480078AA49C006820D4031C868EE
:1024C0001F235B0198431043C86008BDA7488C498F
:1024D0000068403108608A488169890989011C3196
:1024E00081618169C21391438161016B3F221206B0
:1024F00091430722920689180163016B3F229201E2
:1025000091430F22D20189180163016B8909890166
:102510001E31016370477A48C16949084900C161A9
:1025200070478F4808B54030C1688F4A8905C90E89
:102530001170C1681F2252019143C160814901207D
:10254000887180488030C16A03221143C162002033
:102550000090401C0090FF28FBDD08BD08B57949BC
:102560000220887100200090401C00900B28FBDBAB
:1025700008BD634841210177C1690322520291439A
:1025800002158918C16170475D4840300168774A7B
:1025900011600021C9430160594881698909890195
:1025A00081618169C21391438161C1690322520231
:1025B00091430315C918C161C16970239943403122
:1025C000C161016B3F231B0699430B235B06C918AE
:1025D0000163016B3F239B01994389180163016BE0
:1025E00089098901183101637047F8B555480327F7
:1025F0004771434C6068C009C00114306060FFF748
:10260000C3FF43202077FFF7A9FFFFF78AFF0025CC
:10261000261500950098401C0090B042FADB49490D
:1026200003204871364880308068C705FF0DFFF7EA
:1026300036FF00950098401C00901028FADBA06936
:102640004002400AF9050843A061A06948490840D2
:10265000B9010843A061FFF78CFFFFF77FFFFFF789
:1026600060FF00950098401C0090B042FADB3549AD
:1026700003204871224880308068C705FF0DFFF7AE
:102680000EFF00950098401C00901028FADBA0690E
:102690004002400AF9050843A061A0693449084096
:1026A000B9010843A061FFF764FFFFF757FFFFF789
:1026B00038FF00950098401C0090B042FADB214999
:1026C000032048710E4880308068C605A069F60D69
:1026D0004002400AF1050843A061A069244908406E
:1026E000B1010843A061FFF716FFFFF7EFFEFFF708
:1026F000D6FE00950098401C00901028FADB39E0C7
:102700000030004000008888FF00FEFF59055C078C
:10271000800000402020004009581A00FEE1FFFF21
:10272000E0E000000809294900000303696A686CB9
:10273000031FFFFF70600000E0E0E0E00B0A0A0802
:10274000148DFC070010004020130040340A0000E4
:1027500051080000070F00002F64E0FE101A060168
:102760000012004050015001144CFC07744CFC074F
:102770003F80FFFF134846810120F8BD35E77047D1
:1027800008B511480821017100210091009A521CDE
:102790000092102AFADB0091491C00911029FBDB02
:1027A0000321417108BD0848022181710021818007
:1027B000704706490870704704480078704703481E
:1027C00040787047784CFC0700100040148DFC07DF
:1027D000FFB585B00C46FD205EF70AFD039000278B
:1027E0006846077008986946060A20885FF72CFE3D
:1027F00005466088002800D000BE002D6AD1FD206B
:1028000000F064FD694609781423594342680B1DA2
:10281000D35C022B21D15158354A098891421CD1F1
:102820000197029720885FF7AAFD002800D100BE1B
:1028300001AB002204A94EF797FB049821468005BE
:10284000C00F5FF787FD05062D0E43D1684601785E
:10285000E28830465FF759FF21E000280BD08069FD
:102860008446002807D06846A2886188A31D0078A6
:102870006546A847054601970297208801A94EF7AB
:10288000EEF8002D26D101980089C00B07D162888F
:10289000A1882088A31D4EF74CF9051E1AD1314698
:1028A00003985EF7C3FC0146A088079A801D83B297
:1028B00010485AF79FF80746A288A11D801D5CF7B3
:1028C0001BFC684600787880A088B8803E70384647
:1028D0005AF7ABF804230848079A08995AF78AF878
:1028E0002188018085705AF7A0F8002009B0F0BD5A
:1028F000022900000AFD0000160C0000F8B50025B2
:10290000244CFF272E46002813D12846103026617C
:10291000A082E7826660A660E681A681C0B22146F9
:1029200026605AF766FA6D1CEDB21834022DECD30E
:10293000F8BDE08A5EF7E2FC002802D0416820463C
:102940008847E7826660A660E681207D5AF7ABFA89
:102950006D1CEDB21834022DEBD3F8BDF1B50D4D61
:102960000D4F00242E46E88AFD2803D1182060432D
:1029700080194760E88A5EF7C1FC002803D08268AE
:10298000284600999047641CE4B21835022CEAD31B
:10299000F8BD00001C8DFC07B044FC0710B500F02A
:1029A00007FB60F7A5FE0120FDF7AAFE10BD0C2174
:1029B000314A10B5414389188978FF2902D000F0C7
:1029C000C1F810BD00F0AAFE10BD10B560F778FD8B
:1029D000002801D000F0A2FE10BD10B500F09EFE50
:1029E00010BD10B525490A780270401C491C5CF7DF
:1029F00083FB10BD2149498C01807047082101806B
:102A000010214180002181807D21C180704770B5F7
:102A10000C4601780025194B002904D0012909D062
:102A20004820207070BD8278011D1A70581C5CF718
:102A300063FB01E040885884257070BD0120087058
:102A4000002048808880704770B50446407980092E
:102A500011D13FF754FF014620700A0A62700A0C38
:102A6000A270090EE170251D3FF749FF2870000A8A
:102A7000C0210843607170BD648DFC07708DFC0738
:102A80000021BD4A05E0834201D101207047491C65
:102A9000C9B20C234B43D35CFF2BF4D10020704709
:102AA00070B5B549B54C0E460C36B54D0DE0521813
:102AB0005268002A07D0C2B20C235A435118496801
:102AC000401C60702DE0401C607060780C22424316
:102AD0008B5CFF2BEBD10AE089194968002903D0F0
:102AE000FFF7CEFF002809D02078401C2070217805
:102AF0000C204143705CFF28EED117E020780C21B8
:102B0000414389194968401C20700AE04919C96885
:102B1000002909D0C1B21C2251434919C968401C7F
:102B2000A0708847002070BD401CA070A0781C21B8
:102B300041436A5CFF2AE9D10020A07060702070D8
:102B4000012070BDF8B5054600248B4E0AE08019BF
:102B50008168002904D0641CE4B22846884701E05B
:102B6000641CE4B220460C214843315CFF29EED1BD
:102B7000814E00240C3609E08F19B968002903D072
:102B8000FFF77EFF002809D0641CE4B20C216143EA
:102B9000705CFF28F0D10024794E10E0641CB96805
:102BA000E4B228468847F1E780190169002904D07A
:102BB000641CE4B22846884701E0641CE4B2204665
:102BC0001C214843315CFF29EED1F8BDF8B56B4DAF
:102BD000E868002835D1522304220921694859F7B1
:102BE00009FF0446E8600D202070002666706648E4
:102BF000A080E08007202072A6720120607216205B
:102C0000E072024620460C3060A107465CF774FA79
:102C1000E8682B210E54C07A21462C310D301F2834
:102C200006D8E07A0821C21920465EA30B3006E0E0
:102C30002B20005D5BA34218204608212B3060F753
:102C400069FCE868F8BD70B54C4E04468500361D39
:102C50007059002816D121020E23042254480A314B
:102C600059F7C8FE09210170002C00D000BE705138
:102C700010218180082141800021C1807D220281B4
:102C800041818181705970BD70B53C4EB06800289B
:102C900029D13C482C2304220921093859F7AAFEDE
:102CA000032101700A21B06041705F210184002579
:102CB00085760446458010210A305CF736FA2021DB
:102CC000E176A583E5833B486584C08FFB21FB2823
:102CD00000D908463749E0844031374809888142A5
:102CE00000D808462085B06870BD3EB50025224951
:102CF000009501950C223431684602955CF7FCF989
:102D00001E480C22183069465CF7F6F91B4C082265
:102D10002434227023A1601C5CF7EEF91649658407
:102D2000243104205AF765F8002104205AF793F85B
:102D30003EBD4BE710B5FFF749FF59F776FE0F4947
:102D40000020C860022104205AF785F810BD10B594
:102D50000446FFF778FF59F768FE084A0020A100F3
:102D6000121D505010BD10B5FFF78EFF59F75DFED4
:102D700002490020886010BDEC44FC074C8DFC0724
:102D80002446FC070D0D00004C04000003030A1844
:102D90001107595A08E4862A9E8FE911BC7C984392
:102DA00042180000444C472D50525048000000008B
:102DB0000E0E0000F0BBFC074808000010B51046DE
:102DC0005AF75EF8002802D000BE002010BD012393
:102DD00004220921724859F70DFE0121017059F7AB
:102DE00024FEF2E710B50C780E2C13D008DC012C71
:102DF00012D0032C16D00C2C0CD00D2C08D119E0BD
:102E00000F2C07D0112C05D0122C03D0132C01D07D
:102E100000F0D1FC002010BD4878002805D1FFF754
:102E2000A2FFF7E74878002801D000BEF2E7FFF7DD
:102E3000CCFDEFE7487800F0ABFCEBE7F8B51C46BB
:102E400010460E465AF71CF8022802D000BE002099
:102E5000F8BD240A00D000BE0C2027464743514845
:102E60003D18AC70FF2C15D00121E970032104201E
:102E700059F7F1FF4B483188C153707A28713146B8
:102E8000681D06220A315CF737F90122002120462D
:102E900060F72AFB3146204600F052FCD7E770B5B8
:102EA0000D784C78092D04D0002C00D000BE00F025
:102EB00082FC002070BD70B51D4610460C4659F7C7
:102EC000DFFF2A0A032802D000BE002070BD0C20BC
:102ED00042433448FF21101881700021C170204600
:102EE00000F05AFCF1E7F0B5087800252E4C89B0C7
:102EF0001F461646002804D0012817D0022827D1E3
:102F000029E06846FFF76DFD68460378324639468A
:102F100020460A3359F76EFD04460570684602786C
:102F2000411C6280201D5CF7E7F82BE069460D80AC
:102F30006846FFF75FFD0A2332463946204659F7B7
:102F400059FD0121017069460988418059F76DFDDD
:102F5000002009B0F0BD0A233946204659F74AFD42
:102F600004466846FFF74AFD022020706846008844
:102F7000608068464088A08068468088E080684617
:102F8000C08820812046E1E7FEB51C46089B0D263F
:102F9000064D6F4668C71346224660F7A9F9FEBD85
:102FA000020D0000648DFC070B0E00002C45FC0791
:102FB000704710B50A23042209210B4859F71AFD5E
:102FC00004461B202070142060F766FB60701420FC
:102FD00060800420A0800020E080FF2174312181E6
:102FE000204659F722FD10BD1B0D0000F8B50E4616
:102FF00009781846002425460B005CF7D1F809062D
:1030000009120915150C180F1B000B241AA512E044
:1030100007241CA50FE008241CA50CE007241EA50E
:1030200009E00A241EA506E00D2420A503E00624DD
:1030300022A500E000BEA31C0146224859F7DAFC95
:103040000746307838707C70002C04D02246294620
:10305000B81C5CF751F8384659F7E7FC0020F8BD7A
:10306000FEB51C46089B0126174D6F4668C71346E0
:10307000224660F73DF9FEBD4469616C6F672053DD
:10308000656D69004441313435333100123456FFE7
:10309000FE9ABCDE0000000001D2008005000100A5
:1030A000312E302E302E302D4C450000765F362EDE
:1030B000302E31342E31313134000000FFEEDDCCC2
:1030C000BBAA0000031400009445FC07052000077C
:1030D0000089000608D501208007006B000403D496
:1030E00003480078C00701D00020704701207047D6
:1030F00054BAFC077047704770B50D460446FFF799
:10310000E5FF002806D06B482A460421201859F70D
:10311000B0FF70BDFDF710FB66480422082311467E
:10312000801E59F767FC4560047059F77EFC70BD3E
:10313000F8B5614C069D06190024002E26D0012EFC
:103140000CD05F4F5D4B3A46283A022E0AD05A49BE
:10315000C91E41180A2927D30120F8BD00F080F8C4
:10316000287039E00878461E092E0DD88000001F0F
:10317000105898422FD1B0003B5813504A68087835
:103180001146FFF7B9FF26E000BE24E04A68002A96
:1031900002D04C48824200D300BE0878454940180E
:1031A000042159F766FF16E04349891E4018C0B252
:1031B000411E0929E8D88600B218803AD16F00294B
:1031C00009D0994207D0404B994204D0D467F219F4
:1031D000803AD46788472C700020F8BD0A46010069
:1031E00010B5384801D0814200D300BE0020344BD6
:1031F000283B84001C59002C04D0401C0A28F8DB12
:10320000002010BD84001A51401C0406240EF7D083
:103210002046FFF771FF204610BD70B50446401EE2
:1032200009281BD82648A10028380D18803DE86FD2
:10323000002813D0244EB04210D01E48042120187C
:1032400059F761FF1B48042208231146401EEE6710
:1032500059F7D0FB047059F7E8FB70BD00BE70BD94
:1032600010B508780C46411E09291FD88200144861
:10327000121F28388258144B9A4205D10022890027
:1032800042502830425012E0890040580B49884291
:103290000DD1042208231146064859F7ABFB2178CB
:1032A00001706168416059F7C0FB00E000BE00207A
:1032B00010BD000003040000FFFBFFFFF730FC0718
:1032C000D48DFC07FCFF3F00F530FC070021154AB8
:1032D00006E0834203D11C20414388187047491CF3
:1032E0001C234B43D35CFF2BF3D10020704710B558
:1032F0001823042209210C4859F77CFB04461B20A3
:103300002070FD2060F7C8F96070FD206080042007
:10331000A0800021E180E1602161A182204659F76F
:1033200084FB10BD2446FC071B0D00003EB51D4666
:10333000069B002400931346019402942A465FF7EB
:10334000D7FF3EBD70B530480022416AD243002904
:1033500001D0114600E00121CB17CC0D5B022343C5
:103360004C02416229490D684E682C4333430C607E
:103370004B604368002B01D0134600E001234360FB
:10338000DC17DB180D6864414E682B4334430B6037
:103390004C608369002B00D101228261D017930E0B
:1033A000800118430C6892014B68224318430A605D
:1033B000486070BD38B5012003252D0201460090FC
:1033C0001D232A460020FDF7CEFF002423462A466F
:1033D000092120460094FDF7C6FF00220F23062195
:1033E00010460094FDF7BFFF38BD10B51B20FDF758
:1033F000DFFE00F095FCFFF7DDFF05480121828923
:103400008A430A43828110BD688CFC07608CFC07EC
:10341000000300508E4A5188C905490F062901D979
:10342000062102E05188C905490F5288E12392071D
:10343000920F9B00521C5A4350430A31C84080B23D
:1034400070471CB5834903C9009001916846FEF797
:10345000F4F80120FEF724F9FEF710F9FEF714F94D
:10346000FEF7B1F90446FEF703F920461CBD30B55E
:10347000C1B0FD203FF7A7F90146FF230B3304221B
:10348000754859F7B7FA0446FFF7DBFFFFF7C2FFAD
:10349000024672A1684600F081FC0125FFF7D1FFCA
:1034A000FFF7B8FF02466DA13FA800F077FC3FA9E7
:1034B000684600F055FC6D1C232DEFDD0820608070
:1034C000FF220532A280012060706946A01D5BF7D3
:1034D00013FE204659F7A9FA042059F7D1FC032816
:1034E00004D15F49FFF77AFE5E49088041B030BDE4
:1034F00038B50025684605708A88891D5BF7FCFD94
:1035000068460078574C002805D055490320FFF73E
:1035100065FE208038BD20880028FBD0C0B2FFF7B0
:103520007CFE258038BD08B50022684602708A8876
:10353000891D5BF7E1FD68460078012805D0002869
:1035400002D10921FDF7D9FE08BD09210020FDF7B0
:10355000EFFE08BD10B5887900281DD01C0AFD209B
:103560003FF731F901463C4808230422801C59F7F3
:1035700041FA0C214C433C493A4A61188978017060
:10358000132141800221818051880B0A8371C1710E
:10359000491C518059F749FA10BD70477047704770
:1035A00010B518460C4601462B480823083059F739
:1035B00021FA21780C2251432B4A8918897801700D
:1035C0006188418000218180817159F72EFA10BDF8
:1035D00010B518460C4601461F480823083059F715
:1035E00009FA21780C2251431F4A89188978017001
:1035F00061884180002181800321817159F715FA8A
:1036000010BD70B50D4617498888401C8880FD2084
:103610003FF7D9F8014610480A230422401E59F703
:10362000E9F9044628780C2148430F490222401842
:103630008078207068886080A28000200949A0718D
:10364000091DE01D5BF758FD204659F7EEF970BDE6
:10365000001500502C4BFC0706FD000025780000EB
:103660006F34FC07FC8DFC07648DFC07A34841798F
:10367000027909021143491C89B201710A0A427197
:103680009F4A914202D1002101714171704770B58A
:103690009A4CA41FE078000602D525462B3501E0A0
:1036A000964DAD1DFFF7E2FFE07806224006400E82
:1036B000401992495BF720FD904A63792532104604
:1036C00021791F385FF738FF8E498F48FFF786FD55
:1036D000607070BD10B5894CA41F2078FFF737FBD0
:1036E0000020A07010BD70B5844D0024AD1FAC70DB
:1036F0000521A81D0170FF214170CD218170AB21F2
:10370000C17004714471162280A1801D5BF7F4FC26
:10371000162028716C71FFF741F970BD10B5794919
:103720007948FFF75BFD7549891F4870FFF701FB7A
:1037300001230622714900F0A0F8FFF7FBFA10BD43
:1037400070B50C4605460C207649684340188078D1
:10375000FF2816D0694EB61F35707078FFF75DFDF3
:1037600060880838092805D2A088002802D1E0889E
:103770007D2808D07D206C49C000FFF72FFDB07078
:1037800001E0FFF7CBFF21462846FFF710F970BD97
:10379000442800D1C2E7704710B5584CA41FA07848
:1037A000002803D0FFF739FD0020A070FFF75EFF6F
:1037B000FFF7B4FF10BD70B55C4C1D46031BA04263
:1037C0001FD01FDC5A4BC3181BD05A4CE34218D1F0
:1037D0000C4649882E294BD0544808232946001FFF
:1037E00059F708F921780C2251434E4A89188978F3
:1037F000017061884180002181808021817159F7A9
:1038000014F970BD012B08D0042BFAD14B88172B6B
:103810002B462AD0FFF7DCFE70BD4B88102B1CD046
:1038200009DC022B11D0052B13D0092BF4D12B4628
:10383000FFF7B4FE70BD142B03D0172B11D0182B3B
:10384000F8D12B46FFF786FE70BD2B46FFF750FEE2
:1038500070BD2B46FFF767FE70BD2B46FFF79FFE3E
:1038600070BD2B46FFF799FE70BDFFF799FE70BD46
:103870002B462146FFF7C5FE70BDFEB51746044630
:10388000002B01D01C2000E01F20E27A1B4E831A7F
:1038900020460C30019020302546B61F2035009080
:1038A000BB4209DB019810183A465BF725FCE07A29
:1038B000C019E072801F0FE0E87A1F22121ABA4284
:1038C0000CDB009A80183A465BF716FCE87A8021F8
:1038D000C019E872801F0843F07000E000BEE27A71
:1038E00006483271801D01995BF706FCEA7A0348AD
:1038F0007271253000995BF7FFFBFEBD088EFC0757
:10390000FFFF00008F36FC07B80B000003030A1806
:103910001107595A08E4862A9E8FE911BC7C984306
:1039200042180000648DFC07D536FC0709FD000035
:10393000EFF1FFFF0D11FFFFF8B50746012000234F
:10394000024600901946032045F75CFD044602211B
:1039500080300170F64DF5482A6843881146FF31E2
:10396000F7310B8680884886F248066A0123DB0619
:103970009E431E430662FF320020FF3238325082DF
:103980009082D0821D200882EB484884EB48C88290
:10399000EB48088300204882384646F773F8014612
:1039A0002868FF30F730C28B920992010A43C28324
:1039B000E448416800208847002C02D0204645F7A3
:1039C0000AF92046F8BDFFB58BB0064616980027C9
:1039D000022821D00D9801881498814278D37188EB
:1039E000084640383F2802D8159852F707F90C9836
:1039F000361D0088149A80190E995BF77DFB0C9890
:103A00000188149808180C9908800D98018814985A
:103A1000081A0D9908805CE100200E9D07906978D6
:103A20002C78090221433180E978AC7809022143DE
:103A300071808C46403904242D1D024603468E4673
:103A4000402900D32878614604291FD0052914D0C5
:103A5000062918D070463F283DD8159852F7CEF861
:103A60000006000E04D0B848008D0006C00F30D00C
:103A700002230120B54A002712E0697800290FD0FF
:103A8000B34A17230CE0B34A0F2309E0522802D0AF
:103A9000D22802D002E0142000E01520AE4A1F23F5
:103AA000002A1AD0984218D280001058049000289A
:103AB00013D000200890059070884038402803D328
:103AC0002878052430716D1C701D00900498B5E0B5
:103AD000FEE03027F0E03327EEE07088042872D152
:103AE0000627E9E0522862D00CDC4B283FD004DCEA
:103AF00041286AD0422858D111E04C2820D05028C3
:103B000053D140E0632830D004DC572818D0612816
:103B10004BD19BE06C2864D0772846D109E000980F
:103B2000297801700098641C401CA4B26D1C0090A0
:103B300081E00498401C04900178089881427AD171
:103B40000098A41C401C41084900881C009068781B
:103B50002A780002104308800599AD1CA4B2002900
:103B600069D008900020059065E00120FBE7102255
:103B7000294600985BF7C0FA009810341030A4B2C0
:103B80001035009057E02046403014990390884249
:103B90000BD84022294600985BF7AEFA00984030D7
:103BA00000900398403584B245E0342743E0082272
:103BB000294600985BF7A0FA009808340830A4B2B0
:103BC0000835009037E068E0FFE7062229460098B4
:103BD0005BF792FA0098A41D801DA4B2AD1D009061
:103BE00029E01498001B80B203903088001B001D50
:103BF00081B2012007900498401C04900098401C5A
:103C00004008400000900498007857281CD04228B3
:103C1000CBD100980170090A417000982946801C98
:103C20000090039A5BF768FA03980399201884B20E
:103C30000098401800900498401C049000780028D8
:103C40001ED0002F17D01BE04908E2E71498001B94
:103C500081B200980391401C400840000090012070
:103C60000A460790294600985BF746FA03996018C0
:103C700084B20098DDE70D990988A14200D331E7AD
:103C80000D980088A04208D304990978002904D12E
:103C90000799002903D1A04201D034270CE00D99E7
:103CA000001B08800C9801880098801B001F0818D2
:103CB0000C99002F08800CD07088042809D00628A1
:103CC00007D04038402804D30E984079707100E046
:103CD000342738460FB0F0BDFFB581B01F461646F9
:103CE0000C46104659F7CCF800257F2802D02189D0
:103CF000062909D03B4632462146019852F711FB6E
:103D00000546284605B0F0BDC00601D50225F8E7F6
:103D100020780028F5D1300AA11D3EF79AFCF0E783
:103D20000E490020086070477047000030BCFC0757
:103D30004CB9FC07C0000040108000002941000081
:103D40007671000058BFFC0748BEFC073803F20735
:103D50004003F2079C03F207D803F2070000084073
:103D6000421E5378521C002BFBD10B781370491C58
:103D7000521C002BF9D17047064C0125064E05E078
:103D8000E36807CC2B430C3C98471034B442F7D37C
:103D9000FCF7C2F9F44BFC07144CFC070FB410B548
:103DA00004A9074B02AA039800F034F8044602A9BC
:103DB000002000F099F9204610BC08BC04B0184758
:103DC000E940FC07F8B5040C8BB2264682B25E438C
:103DD0000D0C1046370C58433604801900217941E8
:103DE00016466E43370C36048019794126466E43D9
:103DF0008919F8BD02E008C8121F08C1002AFAD1CB
:103E000070477047002001E001C1121F002AFBD15A
:103E100070470000FFB58FB00F460446002606E04D
:103E200025280AD0129A11999047641C761C207894
:103E30000028F5D1304613B0F0BD002501219F4A7E
:103E4000009500E00543641C23780846203B984019
:103E50001042F7D120782E2815D104200543607830
:103E6000641C2A280AD101CF641C00900BE0009941
:103E70000A22514330394018641C009020780146D2
:103E800030390929F3D920786C280ED004DC4C286D
:103E900013D06A2812D104E074280ED07A280DD1EC
:103EA0000BE001204005054307E001210905627888
:103EB0000D43824201D16D18641C641C207869286E
:103EC00049D008DC0028B5D058286CD063280FD022
:103ED000642808D13FE070286AD0732811D0752873
:103EE0005FD078285FD0129A11999047761CE3E052
:103EF0003878694608720020487202A801900120B3
:103F000003E0386801900020C0433F1D69070CD5CD
:103F1000002500E06D1C00998D420FDA8542F9DB27
:103F20000199495D0029F5D108E0002500E06D1CEC
:103F30008542FCDB0199495D0029F8D1761907E03B
:103F4000019801990078491C0191129A11999047A2
:103F50006D1EF5D2B0E00A20029000216802400FE9
:103F6000039102280CD001CFC117844600290DDA35
:103F700060460A4640420021914184462D2008E0D7
:103F8000FF1DFF08FF0003CF8446EFE7280504D597
:103F90002B206A46107401203DE0E8073BD020202A
:103FA000F7E70A2000E0102000210391029007E0CB
:103FB0001020029000210420054308200391009066
:103FC0006802400F022811D001CF00218446002052
:103FD0000D90280720D52078864670280CD0029AAC
:103FE0001020039B42401A430CD015E0FF1DFF0830
:103FF000FF0003CF8446EAE740206A4610740120A0
:104000000D900CE06046084306D030206A461074DC
:104010007046507402200D902078582804D028A0B3
:1040200001900DA80E900DE02AA0F9E76046039BD1
:10403000029A5FF715FA019B84469B5C0E9A521E0A
:104040000E92137060460843F0D10E9805A9081A25
:1040500020300190680701D4012000900099019858
:10406000814201DD081A00E000200025009006E0F2
:1040700004A8129A405D119990476D1C761C0D980A
:104080008542F5DB04E0129A302011999047761CA6
:104090000099481E00900029F5DC08E00E980E9962
:1040A0000078491C0E91129A11999047761C01993B
:1040B000481E01900029F1DC641CB8E609280100C3
:1040C000303132333435363738396162636465668E
:1040D0000000000030313233343536373839414250
:1040E00043444546000000000A68531C0B601070F2
:1040F0007047F401030070CAEA80D00706406432BA
:10410000F240FC07F08BFC07D520FC077321FC076D
:1041100093DEF007F1DEF007F9DEF00749DFF00784
:1041200061DFF00777DFF00799DFF00719E3F007A9
:10413000BDE5F007FDE3F0071DE4F0073DE4F007FF
:104140007BE4F0078BE4F007F5F9F007B1F7F0072F
:10415000CFF7F007EBF7F00705F8F00719F8F007CD
:1041600097F8F007AFF8F007DFCDF10767D0F10758
:10417000DBB9F007CD0DF207B10EF207AD0EF20775
:10418000A90EF2078D21F0079906FC077D1CFC079C
:104190008909FC07BB08FC07A508FC07B57EF007EA
:1041A000837DF0073939FC07599EF107634CF1070D
:1041B000FD28FC07D110F2075D29FC07B111F207B9
:1041C0004112F2077912F207000000009306FC0783
:1041D0009506FC07B9C6F007D592F107C739FC0769
:1041E0005F9DF1075F9CF107D93CFC07EB72F1077B
:1041F000B922F1076B04F1076906FC072BA4F0074D
:10420000F1D2F0075FBDF007D5BDF00785BEF0071E
:10421000DB2DF007752EF0071581F007DF7FF00723
:104220000937F007000000008306FC078B06FC0737
:104230006B06FC07F3C3F10775C4F1079706FC078B
:10424000CB21FC070000000000000000000000007F
:10425000000000000000000000000000000000005E
:10426000000000000000000000000000000000004E
:10427000000000000000000000000000000000003E
:104280000000000005000000A852FC070004000028
:104290005892FC07AC0200004C8EFC0700040000A2
:1042A0001095FC07700500002003000000A60E001A
:1042B00004000000D2000000320000003C000000BA
:1042C00001000000010000000200000002000000E8
:1042D00004000000030000000600000000000000D1
:1042E00002000000020000000000000000000000CA
:1042F00003000000030000000500000005000000AE
:10430000060000000A0000000A000000C8000000CB
:10431000B80B000002000000B80B0000B80B000052
:1043200010000000D4010000CC0100007002000069
:104330006A000000040000000100000020000000EE
:104340000A00000001000000E20400008A020000F0
:10435000DC050000AF0000000041FC070000000089
:104360005844FC07D044FC070446FC07000000004A
:104370000104000000000000000000000000000038
:104380003F000000000000002000800000C000008E
:10439000000084000000282200000000000004004B
:1043A00000F7FFFF7F00000030F0FF0F000000006B
:1043B00000040000000000000000000000000000F9
:1043C0000000000000000000FF0F0000010099093C
:1043D00003009909070099090F0099091F1099090D
:1043E0002F2099095F5199090800049000000000EE
:1043F00000000000030005D08B0035F010005CF0D9
:10440000000010B0000018B000001AB0030051F016
:10441000000038B000003AB0000064B0000066B0A0
:10442000000022B0000024B0010005D00000000010
:104430000A00008008030490000004F0030006D086
:10444000000000000A00008008030490000004F04F
:10445000030006D0000000006447FC076847FC0723
:104460006C47FC07CD32FC07130C00004B29F20708
:10447000150C0000D127FC07170C0000572BF20782
:10448000000C00002328F20706FD00005728F20761
:1044900003FD00003728F20708FD0000B328F207EB
:1044A0000EFD00000F29F20705FD0000992BF20711
:1044B0006844FC070900000014000000ED14F20736
:1044C000FD0000002126F207FF00000000000000B0
:1044D000B844FC071C8DFC070200000000004C04DF
:1044E0004C0407010001020304050600FF00000060
:1044F000000000000000000014000000B32FFC07C3
:1045000000000000FF0000000000000000000000AC
:1045100000000000583FF207A88DFC0704000100CE
:10452000000000000000000000000000010D00007D
:10453000BD2DFC07000D0000E52DFC07000E00005E
:104540009F2EFC07010E00003D2EFC07030E00000D
:10455000B72EFC070A0E0000E72EFC070C0E000029
:104560008531F2071C0D0000C731F207100D000065
:104570008530F2070F0E0000F931F2072C0E000013
:104580003932F207120C00005332F207080E000015
:104590006F32F20702140000ED2FFC074137FC07D1
:1045A0009937FC070000000000000000CB29FC0741
:1045B000000000009137FC0700000000DB29FC0729
:1045C000000000000000000000000000E329FC07DC
:1045D000F529FC07FD29FC070F2AFC070000000055
:1045E0003D2AFC07492AFC070000000000000000EB
:1045F000892FFC073131FC076130FC072D33FC07A4
:10460000F8000000672DFC07A12AFC079C45FC0769
:10461000B737FC07F045FC07648DFC07000000007D
:10462000948DFC07FD0000006C47FC073000000083
:10463000EF32FC0700000000000000000000000056
:10464000FF0000000000000000000000000000006B
:10465000000000000000000000000000595A08E4BB
:10466000862A9E8FE911BC7C9843421820EE8D0C5F
:10467000E1F04A0CB325DC536A68862D4F43313C88
:10468000939242E6A876FA3BEFB4875A17B9679837
:104690004C664C01963331B1915900152368EC52A8
:1046A0001E6244749A1BD18BAB75B66E9EE7BA0836
:1046B000B9A948ABA1AC031C2E0D296C28D5E1C1CA
:1046C000E1C54729B55765C3BA47159E8C09E0D1A6
:1046D000815442408E4FD2B377E32A77595A08E487
:1046E000862A9E8FE911BC7C7C46421820EE8D0CF8
:1046F000E1F04A0CB325DC536A68862C4F43313C09
:10470000939242E6A876FA3BEFB48759595A08E4E7
:10471000862A9E08E911BC7CD047421817B96798D1
:104720004C664C01963331B1915900142368EC5218
:104730001E6244749A1BD18BAB75B66D28D5E1C14E
:10474000E1C54729B55765C3BA47159DF3D81C4540
:1047500011964D1213FED63BCC316C6E0028032807
:1047600002290129001A2130030000005C47FC07E0
:104770001000000001000000100010005C46FC0763
:104780005E47FC070200000001000000000000007E
:10479000000000006C46FC0710000000080002004A
:1047A00001000000000000006247FC07020000005A
:1047B000010000000D000D00E44BFC075E47FC0704
:1047C00002000000010000000000000000000000E6
:1047D0007C46FC07100000000880000001800000FB
:1047E000000000006247FC0702000000010000001A
:1047F00009000900BC4BFC075E47FC0702000000F3
:104800000100000000000000000000008C46FC07D2
:104810001000000001020000040100000000000080
:104820006047FC07020000000900020002000000CF
:10483000000000006247FC070200000001000000C9
:104840000B000B00804BFC075E47FC0702000000DA
:104850000100000000000000000000009C46FC0772
:104860001000000001000000020000000000000035
:104870006247FC0702000000010000000B000B0073
:104880008C4BFC075E47FC070200000001000000A3
:104890000000000000000000AC46FC071000000013
:1048A0000102000001000000000000006047FC075A
:1048B00002000000090002000200000000000000E9
:1048C0006247FC0702000000010000000C000C0021
:1048D000C84BFC075E47FC07020000000100000017
:1048E0000000000000000000BC46FC0710000000B3
:1048F0004100000014000000000000006047FC07B9
:104900000200000009000200020000000000000098
:104910006247FC0702000000010000000C000C00D0
:10492000984BFC075E47FC070200000001000000F6
:104930000000000000000000CC46FC071000000052
:104940000902020032000000000000006047FC077E
:104950000200000009000200020000000000000048
:104960006247FC0702000000010000000A000A0084
:10497000D84BFC075C47FC0710000000010000005A
:1049800010001000DC46FC075E47FC070200000038
:10499000010000000000000000000000EC46FC07E1
:1049A000100000000800020001800000000000006C
:1049B0006247FC0702000000010000000800080038
:1049C000B04BFC075E47FC0702000000010000003E
:1049D0000000000000000000FC46FC071000000082
:1049E0000880000001000000000000006247FC0792
:1049F000020000000100000011001100584BFC07EC
:104A00005C47FC07100000000800000010001000C8
:104A10000C47FC075E47FC07020000000100000095
:104A200000000000000000001C47FC071000000010
:104A30000102000002000000000000006047FC07C7
:104A40000200000009000200020000000000000057
:104A50006247FC0702000000010000001000100087
:104A60006C4BFC075E47FC070200000001000000E1
:104A700000000000000000002C47FC0710000000B0
:104A80000100000002000000000000006247FC0777
:104A9000020000000100000007000700A84BFC070F
:104AA0005E47FC070200000001000000000000005B
:104AB000000000003C47FC0710000000410000001F
:104AC00002000000000000006047FC070200000038
:104AD0000900020002000000000000006247FC071D
:104AE000020000000100000012001200444BFC070D
:104AF0005E47FC070200000001000000000000000B
:104B0000000000004C47FC071000000001000000FE
:104B100002800000000000006247FC070200000065
:104B2000010000000C000C00344BFC0701020200E5
:104B30000003000052656164206D652028524929F8
:104B40000000000052656164206D652028696E6474
:104B500069636174652900005772697465206D6529
:104B600020286E6F20727370290000005265616406
:104B7000206D6520286E6F74696679290000000039
:104B80004144432056616C75652031004144432007
:104B900056616C7565203200496E646963617465A5
:104BA00061626C650000000052656164206D650003
:104BB0005772697465206D65000000004C45442003
:104BC0005374617465000000427574746F6E2053F5
:104BD00074617465000000004C6F6E672056616C54
:104BE00075650000436F6E74726F6C20506F696E54
:104BF00074000000184CFC07184CFC0790060000DD
:104C0000043EFC07C08BFC07C08BFC078C02000035
:084C1000043EFC070E00000049
:0400000507FC0111E2
:00000001FF
